:100000000A128A114A2A00308A000408840A8207E8
:10001000003456346F346C3474346134673465346E
:040020003A3400343A
:10046600831203131F100800831203131F140800BE
:1004760001300A128A1152220A128A110800F30068
:1004860073080A128A115D220A128A110800CA012B
:10049600CB01CC01CD0183010A128A11DD2EF200B7
:1004A60083120313061172080A128A11A9240A126A
:1004B6008A110800F20083120313061572080A1245
:1004C6008A11A9240A128A110800831603131F171A
:1004D600831203139F171F13831603139F151F15EC
:1004E6009F141F109F17831203131F100800F40098
:1004F600F408031D7F2A802A882A730880380A1286
:100506008A1152220A128A11902A7308C0380A12D6
:100516008A1152220A128A11902A08000A128A1196
:1005260068220A128A110730F6007D30F500F50BB5
:100536009A2AF60B9A2A0A128A1122240A128A1178
:100546000A128A113B220A128A1108008312031327
:100556002A08F0002B08F100F2018E30FC007C081E
:10056600F300F4010A128A11A7230A128A117008ED
:1005760083120313AA007108AB007208AC00C32AE9
:100586000800F400D72A740884000A128A1103208E
:100596000A128A110A128A115D220A128A11013080
:1005A600F3007308F407D72A740884000A128A1124
:1005B60003200A128A110038031DE22AE32AC62AFA
:1005C600E42A0800F401F501831203139F121F1297
:1005D6009F11A630F200F20BEE2A000083120313DD
:1005E6001F15F52A1F19F82AF92AF52AFA2A1E08CC
:1005F600F200F3017208F300F2017208F4007308C6
:10060600F500831603131E087407F4007508031813
:10061600750AF5007508F101F1077408F001F00795
:10062600142B08007108700403191A2B1B2B512B6D
:10063600F5010314F50D2B2B01300310F00DF10D10
:10064600FF3E031D202B0130F4007408F5072B2B09
:10065600F11F2E2B2F2B1F2B312B312B71087302E1
:10066600031D372B70087202031C3A2B3B2B422BBF
:100676007008F2027108031CF303F302422B0130E7
:100686000310F10CF00CFF3E031D432B0130F50265
:10069600031D4E2B4F2B312B512B512B7308F10180
:1006A600F1077208F001F007582B0800F501F60172
:1006B600710870040319602B612B9F2BF70103143B
:1006C600F70D712B01300310F00DF10DFF3E031DE8
:1006D600662B0130F4007408F707712BF11F742B99
:1006E600752B652B772B772B01300310F50DF60D47
:1006F600FF3E031D782B71087302031D842B7008BF
:100706007202031C872B882B902B7008F20271084B
:10071600031CF303F3027514902B01300310F10C44
:10072600F00CFF3E031D912B0130F702031D9C2B9D
:100736009D2B772B9F2B9F2B7608F101F1077508D0
:10074600F001F007A62B08007308031DAB2BB32B93
:10075600720871047004031DB12BB22BC92BB32B85
:100766000030F0000030F1000030F200212C212C86
:10077600C92B0130F5007508F30701300310F20CA0
:10078600F10CF00CFF3E031DC12BC92BFE30720588
:10079600031DCE2BCF2BBC2BE72BE72B0130F5000F
:1007A6007508F3070130F007003003180130F10730
:1007B600003003180130F20701300310F20CF10C7F
:1007C600F00CFF3E031DE02BFF307205031DEC2BE2
:1007D600ED2BD12BFA2BFA2B0130F302013003104B
:1007E600F00DF10DF20DFF3E031DF22BFA2BF11F5A
:1007F600FD2BFE2BEF2B7318012C022C082CFF303F
:10080600F0057F30F105FF30F2050310F30C730895
:10081600F500F601F70110300310F50DF60DF70D92
:10082600FF3E031D0F2C7508F0047608F1047708C7
:10083600F2047408031D202C212CF2170800143032
:10084600F4007930F300F30B262CF40B262C2B2C1A
:100856008312031386150D30F400FB30F300F30BFF
:10086600322CF40B322C372C83120313861106110B
:1008760086130613861606168615F930F300000051
:10088600F30B422C462C00008312031386118613A9
:100896000613861606168615F930F3000000F30BCC
:1008A600512C552C0000831203138611F930F300E6
:1008B6000000F30B5B2C5F2C0000831203138613DE
:1008C6000613861606168615F930F3000000F30B9C
:1008D600692C6D2C0000831203138611F930F30086
:1008E6000000F30B732C772C00008312031386137E
:1008F6000613861606128615F930F3000000F30B70
:10090600812C852C0000831203138611F930F30025
:100916000000F30B8B2C8F2C000028300A128A1152
:1009260052220A128A110C300A128A1152220A1213
:100936008A1101300A128A1152220A128A110630CD
:100946000A128A1152220A128A110800F10071084D
:10095600F00007300310F00CFF3E031DAD2C70189D
:10096600B52CB92C831203138617BC2C83120313E0
:1009760086137108F00006300310F00CFF3E031DCD
:10098600BF2C7018C72CCB2C831203130617CE2C42
:100996008312031306137108F00005300310F00CE0
:1009A600FF3E031DD12C7018D92CDD2C83120313A6
:1009B6008616E02C8312031386127108F0000430A9
:1009C6000310F00CFF3E031DE32C7018EB2CEF2CEC
:1009D600831203130616F22C8312031306128615CE
:1009E600F930F0000000F00BF52CF92C0000831212
:1009F600031386117108F00003300310F00CFF3E5C
:100A0600031D002D7018082D0C2D83120313861755
:100A16000F2D8312031386137108F00002300310A2
:100A2600F00CFF3E031D122D70181A2D1E2D831279
:100A360003130617212D8312031306137108F00002
:100A460001300310F00CFF3E031D242D70182C2DD1
:100A5600302D831203138616332D83120313861249
:100A66007118362D3A2D8312031306163D2D831267
:100A7600031306128615F930F0000000F00B402D26
:100A8600442D000083120313861108007808831290
:100A96000313A0007908A1007A08A2000310210D13
:100AA600220DA3002308A900A908031D5B2D5C2DB8
:100AB600662D0030FB000030FA000030F9000030EF
:100AC600F800EE2DEE2D7808A0007908A1007A082E
:100AD600A20017300310A20CA10CA00CFF3E031DB0
:100AE6006D2D2008A3002308A400F917FF30F80590
:100AF600FF30F9050030FA057808A5007908A60048
:100B06007A08A700A8018E30A902A91F8B2D8C2D6B
:100B1600B12D2908803A8F3E0318922D932D9E2DD4
:100B26000030FB000030FA000030F9000030F80019
:100B3600EE2DEE2D9E2D01300310A80CA70CA60C51
:100B4600A50CFF3E031D9F2D0130A0002008A9071C
:100B5600031DAE2DAF2D9E2DD52DD52D1830290276
:100B6600031CB62DB72DCE2D0030FB000030FA0049
:100B76000030F9000030F800EE2DEE2DCE2D0130BC
:100B8600A0000310A50DA60DA70DA80DA00BC42D42
:100B96000130A902CE2DA908031DD22DD32DC22DB9
:100BA600D52DD52D2408031DD92DE52DA509A6097A
:100BB600A709A809A50A0319A60A0319A70A03196A
:100BC600A80AE52D2808FB002708FA002608F900E0
:100BD6002508F800EE2D0800831203132D08B30034
:100BE6002E08B4002F08B5000310340D350DB600DD
:100BF6003608B700B708031D012E022E0A2E003054
:100C0600AD000030AE000030AF00DC2EDC2E300828
:100C1600B3003108B4003208B5000310340D350DA9
:100C2600B6003608BC00BC08031D1A2E1B2E232E48
:100C36000030AD000030AE000030AF00DC2EDC2E00
:100C46003C087B3EB3003308B7072D08B3002E08D7
:100C5600B4002F08B50010300310B50CB40CB30C5B
:100C6600FF3E031D2F2E3308B6003608BC003008A1
:100C7600B3003108B4003208B50010300310B50CCB
:100C8600B40CB30CFF3E031D412E3308B6003608E4
:100C9600BC068030B3003308BC05AE17B117FF3071
:100CA600B005FF30B1050030B2050030B8000030A5
:100CB600B9000030BA000730B3003308BB00632E1A
:100CC6002D1C662E672E782E3008B80731080311C2
:100CD6000318310A0319702EB907320803110318D5
:100CE600320A0319772EBA07782E01300310AF0C9B
:100CF600AE0CAD0CFF3E031D792E01300310B00D76
:100D0600B10DB20DFF3E031D812E0130BB02031D46
:100D16008D2E8E2E632E8F2E0930B3003308BB0026
:100D2600942E2D1C972E982EA92E3008B807310820
:100D360003110318310A0319A12EB907320803114A
:100D46000318320A0319A82EBA07A92E0130031078
:100D5600AF0CAE0CAD0CFF3E031DAA2E01300310E6
:100D6600BA0CB90CB80CFF3E031DB22E0130BB0203
:100D7600031DBE2EBF2E942EC02E3808F000390853
:100D8600F1003A08F2003708B3003308F3003C08D4
:100D9600B4003408F4000A128A11A7230A128A1131
:100DA600700883120313AD007108AE007208AF001D
:100DB600DC2E0800831603130514013086000A1280
:100DC6008A1191220A128A1101300A128A11C4224A
:100DD6000A128A110A128A1137220A128A11A630B9
:100DE600FD00FD0BF42E0000F82E83120313C8013C
:100DF600C901C201C301003043020A30031942028D
:100E0600031C062F072F092F282F282F0A128A11B5
:100E1600E5220A128A118312031348087007C800D4
:100E260049080318490A7107C9000130C2070318A7
:100E3600C30A0030C307003043020A3003194202D6
:100E4600031C262F272F092F282F0A30F0000030E9
:100E5600F1004908F301F3074808F201F2070A1204
:100E66008A1159230A128A11710883120313C901C0
:100E7600C9077008C801C8074908AB01AB0748088D
:100E8600AA01AA070A128A11A9220A128A11831232
:100E960003132A08B0002B08B1002C08B20040301A
:100EA600AD009C30AE004030AF000A128A11EF252B
:100EB6000A128A11831203132D08F8002E08F9006E
:100EC6002F08FA000A128A1149250A128A1179088E
:100ED60083120313C501C5077808C401C4074D086A
:100EE600C0004C08BF004B08BE004A08BD00C10147
:100EF600C601C70100304702043003194602031C2D
:100F0600852F862F882FCD2FCD2F0A30F000003069
:100F1600F1004508F301F3074408F201F2070A124B
:100F26008A1115230A128A117008FD007D088312A2
:100F36000313C1000A30F0000030F1004508F30148
:100F4600F3074408F201F2070A128A1159230A121A
:100F56008A11710883120313C501C5077008C401FD
:100F6600C4074108303EFD0046083D3E84007D082A
:100F7600831380000130C6070318C70A0030C7076D
:100F860000304702043003194602031CCB2FCC2F36
:100F9600882FCD2F4030FD007D08F30000300A1267
:100FA6008A117A220A128A118312031340080A123E
:100FB6008A1142220A128A112E300A128A114222FC
:100FC6000A128A11831203133F080A128A11422257
:100FD6000A128A11831203133E080A128A11422248
:100FE6000A128A11F82EF82E0A128A1133220A12D0
:0A0FF6008A11FC2F0A128A1100284C
:02400E00323F3F
:00000001FF
